{
  "contracts/Lock.sol": {
    "Voting": {
      "abi": [
        {
          "inputs": [
            {
              "internalType": "string[]",
              "name": "_candidates",
              "type": "string[]"
            }
          ],
          "stateMutability": "nonpayable",
          "type": "constructor"
        },
        {
          "anonymous": false,
          "inputs": [
            {
              "indexed": false,
              "internalType": "uint256",
              "name": "id",
              "type": "uint256"
            },
            {
              "indexed": false,
              "internalType": "string",
              "name": "name",
              "type": "string"
            }
          ],
          "name": "CandidateAdded",
          "type": "event"
        },
        {
          "anonymous": false,
          "inputs": [
            {
              "indexed": false,
              "internalType": "address",
              "name": "voter",
              "type": "address"
            },
            {
              "indexed": false,
              "internalType": "uint256",
              "name": "candidateId",
              "type": "uint256"
            },
            {
              "indexed": false,
              "internalType": "uint256",
              "name": "points",
              "type": "uint256"
            }
          ],
          "name": "VoteCasted",
          "type": "event"
        },
        {
          "anonymous": false,
          "inputs": [
            {
              "indexed": false,
              "internalType": "string",
              "name": "name",
              "type": "string"
            },
            {
              "indexed": false,
              "internalType": "uint256",
              "name": "points",
              "type": "uint256"
            }
          ],
          "name": "WinnerAnnounced",
          "type": "event"
        },
        {
          "inputs": [
            {
              "internalType": "uint256",
              "name": "",
              "type": "uint256"
            }
          ],
          "name": "candidates",
          "outputs": [
            {
              "internalType": "string",
              "name": "name",
              "type": "string"
            },
            {
              "internalType": "uint256",
              "name": "points",
              "type": "uint256"
            }
          ],
          "stateMutability": "view",
          "type": "function"
        },
        {
          "inputs": [],
          "name": "candidatesCount",
          "outputs": [
            {
              "internalType": "uint256",
              "name": "",
              "type": "uint256"
            }
          ],
          "stateMutability": "view",
          "type": "function"
        },
        {
          "inputs": [],
          "name": "getWinner",
          "outputs": [
            {
              "internalType": "string",
              "name": "winnerName",
              "type": "string"
            }
          ],
          "stateMutability": "view",
          "type": "function"
        },
        {
          "inputs": [
            {
              "internalType": "uint256",
              "name": "_candidateId",
              "type": "uint256"
            },
            {
              "internalType": "uint8",
              "name": "_voteRank",
              "type": "uint8"
            }
          ],
          "name": "vote",
          "outputs": [],
          "stateMutability": "nonpayable",
          "type": "function"
        },
        {
          "inputs": [
            {
              "internalType": "address",
              "name": "",
              "type": "address"
            }
          ],
          "name": "votesCast",
          "outputs": [
            {
              "internalType": "uint8",
              "name": "",
              "type": "uint8"
            }
          ],
          "stateMutability": "view",
          "type": "function"
        }
      ],
      "evm": {
        "bytecode": {
          "linkReferences": {},
          "object": "608060405234801561001057600080fd5b506040516113c13803806113c18339818101604052810190610032919061037d565b60005b815181101561011b57604051806040016040528083838151811061005c5761005b6103c6565b5b60200260200101518152602001600081525060008083815260200190815260200160002060008201518160000190816100959190610616565b5060208201518160010155905050600160008154809291906100b690610717565b91905055507fe83b2a43e7e82d975c8a0a6d2f045153c869e111136a34d1889ab7b598e396a3818383815181106100f0576100ef6103c6565b5b60200260200101516040516101069291906107b8565b60405180910390a18080600101915050610035565b50506107e8565b6000604051905090565b600080fd5b600080fd5b600080fd5b6000601f19601f8301169050919050565b7f4e487b7100000000000000000000000000000000000000000000000000000000600052604160045260246000fd5b6101848261013b565b810181811067ffffffffffffffff821117156101a3576101a261014c565b5b80604052505050565b60006101b6610122565b90506101c2828261017b565b919050565b600067ffffffffffffffff8211156101e2576101e161014c565b5b602082029050602081019050919050565b600080fd5b600080fd5b600067ffffffffffffffff8211156102185761021761014c565b5b6102218261013b565b9050602081019050919050565b60005b8381101561024c578082015181840152602081019050610231565b60008484015250505050565b600061026b610266846101fd565b6101ac565b905082815260208101848484011115610287576102866101f8565b5b61029284828561022e565b509392505050565b600082601f8301126102af576102ae610136565b5b81516102bf848260208601610258565b91505092915050565b60006102db6102d6846101c7565b6101ac565b905080838252602082019050602084028301858111156102fe576102fd6101f3565b5b835b8181101561034557805167ffffffffffffffff81111561032357610322610136565b5b808601610330898261029a565b85526020850194505050602081019050610300565b5050509392505050565b600082601f83011261036457610363610136565b5b81516103748482602086016102c8565b91505092915050565b6000602082840312156103935761039261012c565b5b600082015167ffffffffffffffff8111156103b1576103b0610131565b5b6103bd8482850161034f565b91505092915050565b7f4e487b7100000000000000000000000000000000000000000000000000000000600052603260045260246000fd5b600081519050919050565b7f4e487b7100000000000000000000000000000000000000000000000000000000600052602260045260246000fd5b6000600282049050600182168061044757607f821691505b60208210810361045a57610459610400565b5b50919050565b60008190508160005260206000209050919050565b60006020601f8301049050919050565b600082821b905092915050565b6000600883026104c27fffffffffffffffffffffffffffffffffffffffffffffffffffffffffffffffff82610485565b6104cc8683610485565b95508019841693508086168417925050509392505050565b6000819050919050565b6000819050919050565b600061051361050e610509846104e4565b6104ee565b6104e4565b9050919050565b6000819050919050565b61052d836104f8565b6105416105398261051a565b848454610492565b825550505050565b600090565b610556610549565b610561818484610524565b505050565b5b818110156105855761057a60008261054e565b600181019050610567565b5050565b601f8211156105ca5761059b81610460565b6105a484610475565b810160208510156105b3578190505b6105c76105bf85610475565b830182610566565b50505b505050565b600082821c905092915050565b60006105ed600019846008026105cf565b1980831691505092915050565b600061060683836105dc565b9150826002028217905092915050565b61061f826103f5565b67ffffffffffffffff8111156106385761063761014c565b5b610642825461042f565b61064d828285610589565b600060209050601f831160018114610680576000841561066e578287015190505b61067885826105fa565b8655506106e0565b601f19841661068e86610460565b60005b828110156106b657848901518255600182019150602085019450602081019050610691565b868310156106d357848901516106cf601f8916826105dc565b8355505b6001600288020188555050505b505050505050565b7f4e487b7100000000000000000000000000000000000000000000000000000000600052601160045260246000fd5b6000610722826104e4565b91507fffffffffffffffffffffffffffffffffffffffffffffffffffffffffffffffff8203610754576107536106e8565b5b600182019050919050565b610768816104e4565b82525050565b600082825260208201905092915050565b600061078a826103f5565b610794818561076e565b93506107a481856020860161022e565b6107ad8161013b565b840191505092915050565b60006040820190506107cd600083018561075f565b81810360208301526107df818461077f565b90509392505050565b610bca806107f76000396000f3fe608060405234801561001057600080fd5b50600436106100575760003560e01c80632d35a8a21461005c5780633477ee2e1461007a57806379e17080146100ab5780638e7ea5b2146100db578063943e8216146100f9575b600080fd5b610064610115565b60405161007191906105d1565b60405180910390f35b610094600480360381019061008f919061061d565b61011b565b6040516100a29291906106da565b60405180910390f35b6100c560048036038101906100c09190610768565b6101c7565b6040516100d291906107b1565b60405180910390f35b6100e36101e7565b6040516100f091906107cc565b60405180910390f35b610113600480360381019061010e919061081a565b6102df565b005b60015481565b600060205280600052604060002060009150905080600001805461013e90610889565b80601f016020809104026020016040519081016040528092919081815260200182805461016a90610889565b80156101b75780601f1061018c576101008083540402835291602001916101b7565b820191906000526020600020905b81548152906001019060200180831161019a57829003601f168201915b5050505050908060010154905082565b60026020528060005260406000206000915054906101000a900460ff1681565b60606000805b6001548110156102da57816000808381526020019081526020016000206001015411156102cd57600080828152602001908152602001600020600101549150600080828152602001908152602001600020600001805461024c90610889565b80601f016020809104026020016040519081016040528092919081815260200182805461027890610889565b80156102c55780601f1061029a576101008083540402835291602001916102c5565b820191906000526020600020905b8154815290600101906020018083116102a857829003601f168201915b505050505092505b80806001019150506101ed565b505090565b6003600260003373ffffffffffffffffffffffffffffffffffffffff1673ffffffffffffffffffffffffffffffffffffffff16815260200190815260200160002060009054906101000a900460ff1660ff1610610371576040517f08c379a00000000000000000000000000000000000000000000000000000000081526004016103689061092c565b60405180910390fd5b60015482106103b5576040517f08c379a00000000000000000000000000000000000000000000000000000000081526004016103ac90610998565b60405180910390fd5b60018160ff16101580156103cd575060038160ff1611155b61040c576040517f08c379a000000000000000000000000000000000000000000000000000000000815260040161040390610a04565b60405180910390fd5b600681600260003373ffffffffffffffffffffffffffffffffffffffff1673ffffffffffffffffffffffffffffffffffffffff16815260200190815260200160002060009054906101000a900460ff166104669190610a53565b60ff1611156104aa576040517f08c379a00000000000000000000000000000000000000000000000000000000081526004016104a190610afa565b60405180910390fd5b600060018260ff16146104d15760028260ff16146104c95760016104cc565b60035b6104d4565b60055b60ff1690508060008085815260200190815260200160002060010160008282546104fe9190610b1a565b9250508190555081600260003373ffffffffffffffffffffffffffffffffffffffff1673ffffffffffffffffffffffffffffffffffffffff16815260200190815260200160002060008282829054906101000a900460ff166105609190610a53565b92506101000a81548160ff021916908360ff1602179055507fcb87df07b1c304492bd875a5c8b98672eca500939412809ea229afef1d7451883384836040516105ab93929190610b5d565b60405180910390a1505050565b6000819050919050565b6105cb816105b8565b82525050565b60006020820190506105e660008301846105c2565b92915050565b600080fd5b6105fa816105b8565b811461060557600080fd5b50565b600081359050610617816105f1565b92915050565b600060208284031215610633576106326105ec565b5b600061064184828501610608565b91505092915050565b600081519050919050565b600082825260208201905092915050565b60005b83811015610684578082015181840152602081019050610669565b60008484015250505050565b6000601f19601f8301169050919050565b60006106ac8261064a565b6106b68185610655565b93506106c6818560208601610666565b6106cf81610690565b840191505092915050565b600060408201905081810360008301526106f481856106a1565b905061070360208301846105c2565b9392505050565b600073ffffffffffffffffffffffffffffffffffffffff82169050919050565b60006107358261070a565b9050919050565b6107458161072a565b811461075057600080fd5b50565b6000813590506107628161073c565b92915050565b60006020828403121561077e5761077d6105ec565b5b600061078c84828501610753565b91505092915050565b600060ff82169050919050565b6107ab81610795565b82525050565b60006020820190506107c660008301846107a2565b92915050565b600060208201905081810360008301526107e681846106a1565b905092915050565b6107f781610795565b811461080257600080fd5b50565b600081359050610814816107ee565b92915050565b60008060408385031215610831576108306105ec565b5b600061083f85828601610608565b925050602061085085828601610805565b9150509250929050565b7f4e487b7100000000000000000000000000000000000000000000000000000000600052602260045260246000fd5b600060028204905060018216806108a157607f821691505b6020821081036108b4576108b361085a565b5b50919050565b7f596f752063616e20636173742061206d6178696d756d206f66203320766f746560008201527f732e000000000000000000000000000000000000000000000000000000000000602082015250565b6000610916602283610655565b9150610921826108ba565b604082019050919050565b6000602082019050818103600083015261094581610909565b9050919050565b7f496e76616c69642063616e6469646174652049442e0000000000000000000000600082015250565b6000610982601583610655565b915061098d8261094c565b602082019050919050565b600060208201905081810360008301526109b181610975565b9050919050565b7f566f74652072616e6b206d75737420626520312c20322c206f7220332e000000600082015250565b60006109ee601d83610655565b91506109f9826109b8565b602082019050919050565b60006020820190508181036000830152610a1d816109e1565b9050919050565b7f4e487b7100000000000000000000000000000000000000000000000000000000600052601160045260246000fd5b6000610a5e82610795565b9150610a6983610795565b9250828201905060ff811115610a8257610a81610a24565b5b92915050565b7f457863656564696e672074686520746f74616c20616c6c6f77656420766f746560008201527f732e000000000000000000000000000000000000000000000000000000000000602082015250565b6000610ae4602283610655565b9150610aef82610a88565b604082019050919050565b60006020820190508181036000830152610b1381610ad7565b9050919050565b6000610b25826105b8565b9150610b30836105b8565b9250828201905080821115610b4857610b47610a24565b5b92915050565b610b578161072a565b82525050565b6000606082019050610b726000830186610b4e565b610b7f60208301856105c2565b610b8c60408301846105c2565b94935050505056fea26469706673582212207f369b4237e5ec24a6c18cffaf00f161332c84184b4be9d34cc5d34e1c004a4a64736f6c634300081c0033",
          "opcodes": "PUSH1 0x80 PUSH1 0x40 MSTORE CALLVALUE DUP1 ISZERO PUSH2 0x10 JUMPI PUSH1 0x0 DUP1 REVERT JUMPDEST POP PUSH1 0x40 MLOAD PUSH2 0x13C1 CODESIZE SUB DUP1 PUSH2 0x13C1 DUP4 CODECOPY DUP2 DUP2 ADD PUSH1 0x40 MSTORE DUP2 ADD SWAP1 PUSH2 0x32 SWAP2 SWAP1 PUSH2 0x37D JUMP JUMPDEST PUSH1 0x0 JUMPDEST DUP2 MLOAD DUP2 LT ISZERO PUSH2 0x11B JUMPI PUSH1 0x40 MLOAD DUP1 PUSH1 0x40 ADD PUSH1 0x40 MSTORE DUP1 DUP4 DUP4 DUP2 MLOAD DUP2 LT PUSH2 0x5C JUMPI PUSH2 0x5B PUSH2 0x3C6 JUMP JUMPDEST JUMPDEST PUSH1 0x20 MUL PUSH1 0x20 ADD ADD MLOAD DUP2 MSTORE PUSH1 0x20 ADD PUSH1 0x0 DUP2 MSTORE POP PUSH1 0x0 DUP1 DUP4 DUP2 MSTORE PUSH1 0x20 ADD SWAP1 DUP2 MSTORE PUSH1 0x20 ADD PUSH1 0x0 KECCAK256 PUSH1 0x0 DUP3 ADD MLOAD DUP2 PUSH1 0x0 ADD SWAP1 DUP2 PUSH2 0x95 SWAP2 SWAP1 PUSH2 0x616 JUMP JUMPDEST POP PUSH1 0x20 DUP3 ADD MLOAD DUP2 PUSH1 0x1 ADD SSTORE SWAP1 POP POP PUSH1 0x1 PUSH1 0x0 DUP2 SLOAD DUP1 SWAP3 SWAP2 SWAP1 PUSH2 0xB6 SWAP1 PUSH2 0x717 JUMP JUMPDEST SWAP2 SWAP1 POP SSTORE POP PUSH32 0xE83B2A43E7E82D975C8A0A6D2F045153C869E111136A34D1889AB7B598E396A3 DUP2 DUP4 DUP4 DUP2 MLOAD DUP2 LT PUSH2 0xF0 JUMPI PUSH2 0xEF PUSH2 0x3C6 JUMP JUMPDEST JUMPDEST PUSH1 0x20 MUL PUSH1 0x20 ADD ADD MLOAD PUSH1 0x40 MLOAD PUSH2 0x106 SWAP3 SWAP2 SWAP1 PUSH2 0x7B8 JUMP JUMPDEST PUSH1 0x40 MLOAD DUP1 SWAP2 SUB SWAP1 LOG1 DUP1 DUP1 PUSH1 0x1 ADD SWAP2 POP POP PUSH2 0x35 JUMP JUMPDEST POP POP PUSH2 0x7E8 JUMP JUMPDEST PUSH1 0x0 PUSH1 0x40 MLOAD SWAP1 POP SWAP1 JUMP JUMPDEST PUSH1 0x0 DUP1 REVERT JUMPDEST PUSH1 0x0 DUP1 REVERT JUMPDEST PUSH1 0x0 DUP1 REVERT JUMPDEST PUSH1 0x0 PUSH1 0x1F NOT PUSH1 0x1F DUP4 ADD AND SWAP1 POP SWAP2 SWAP1 POP JUMP JUMPDEST PUSH32 0x4E487B7100000000000000000000000000000000000000000000000000000000 PUSH1 0x0 MSTORE PUSH1 0x41 PUSH1 0x4 MSTORE PUSH1 0x24 PUSH1 0x0 REVERT JUMPDEST PUSH2 0x184 DUP3 PUSH2 0x13B JUMP JUMPDEST DUP2 ADD DUP2 DUP2 LT PUSH8 0xFFFFFFFFFFFFFFFF DUP3 GT OR ISZERO PUSH2 0x1A3 JUMPI PUSH2 0x1A2 PUSH2 0x14C JUMP JUMPDEST JUMPDEST DUP1 PUSH1 0x40 MSTORE POP POP POP JUMP JUMPDEST PUSH1 0x0 PUSH2 0x1B6 PUSH2 0x122 JUMP JUMPDEST SWAP1 POP PUSH2 0x1C2 DUP3 DUP3 PUSH2 0x17B JUMP JUMPDEST SWAP2 SWAP1 POP JUMP JUMPDEST PUSH1 0x0 PUSH8 0xFFFFFFFFFFFFFFFF DUP3 GT ISZERO PUSH2 0x1E2 JUMPI PUSH2 0x1E1 PUSH2 0x14C JUMP JUMPDEST JUMPDEST PUSH1 0x20 DUP3 MUL SWAP1 POP PUSH1 0x20 DUP2 ADD SWAP1 POP SWAP2 SWAP1 POP JUMP JUMPDEST PUSH1 0x0 DUP1 REVERT JUMPDEST PUSH1 0x0 DUP1 REVERT JUMPDEST PUSH1 0x0 PUSH8 0xFFFFFFFFFFFFFFFF DUP3 GT ISZERO PUSH2 0x218 JUMPI PUSH2 0x217 PUSH2 0x14C JUMP JUMPDEST JUMPDEST PUSH2 0x221 DUP3 PUSH2 0x13B JUMP JUMPDEST SWAP1 POP PUSH1 0x20 DUP2 ADD SWAP1 POP SWAP2 SWAP1 POP JUMP JUMPDEST PUSH1 0x0 JUMPDEST DUP4 DUP2 LT ISZERO PUSH2 0x24C JUMPI DUP1 DUP3 ADD MLOAD DUP2 DUP5 ADD MSTORE PUSH1 0x20 DUP2 ADD SWAP1 POP PUSH2 0x231 JUMP JUMPDEST PUSH1 0x0 DUP5 DUP5 ADD MSTORE POP POP POP POP JUMP JUMPDEST PUSH1 0x0 PUSH2 0x26B PUSH2 0x266 DUP5 PUSH2 0x1FD JUMP JUMPDEST PUSH2 0x1AC JUMP JUMPDEST SWAP1 POP DUP3 DUP2 MSTORE PUSH1 0x20 DUP2 ADD DUP5 DUP5 DUP5 ADD GT ISZERO PUSH2 0x287 JUMPI PUSH2 0x286 PUSH2 0x1F8 JUMP JUMPDEST JUMPDEST PUSH2 0x292 DUP5 DUP3 DUP6 PUSH2 0x22E JUMP JUMPDEST POP SWAP4 SWAP3 POP POP POP JUMP JUMPDEST PUSH1 0x0 DUP3 PUSH1 0x1F DUP4 ADD SLT PUSH2 0x2AF JUMPI PUSH2 0x2AE PUSH2 0x136 JUMP JUMPDEST JUMPDEST DUP2 MLOAD PUSH2 0x2BF DUP5 DUP3 PUSH1 0x20 DUP7 ADD PUSH2 0x258 JUMP JUMPDEST SWAP2 POP POP SWAP3 SWAP2 POP POP JUMP JUMPDEST PUSH1 0x0 PUSH2 0x2DB PUSH2 0x2D6 DUP5 PUSH2 0x1C7 JUMP JUMPDEST PUSH2 0x1AC JUMP JUMPDEST SWAP1 POP DUP1 DUP4 DUP3 MSTORE PUSH1 0x20 DUP3 ADD SWAP1 POP PUSH1 0x20 DUP5 MUL DUP4 ADD DUP6 DUP2 GT ISZERO PUSH2 0x2FE JUMPI PUSH2 0x2FD PUSH2 0x1F3 JUMP JUMPDEST JUMPDEST DUP4 JUMPDEST DUP2 DUP2 LT ISZERO PUSH2 0x345 JUMPI DUP1 MLOAD PUSH8 0xFFFFFFFFFFFFFFFF DUP2 GT ISZERO PUSH2 0x323 JUMPI PUSH2 0x322 PUSH2 0x136 JUMP JUMPDEST JUMPDEST DUP1 DUP7 ADD PUSH2 0x330 DUP10 DUP3 PUSH2 0x29A JUMP JUMPDEST DUP6 MSTORE PUSH1 0x20 DUP6 ADD SWAP5 POP POP POP PUSH1 0x20 DUP2 ADD SWAP1 POP PUSH2 0x300 JUMP JUMPDEST POP POP POP SWAP4 SWAP3 POP POP POP JUMP JUMPDEST PUSH1 0x0 DUP3 PUSH1 0x1F DUP4 ADD SLT PUSH2 0x364 JUMPI PUSH2 0x363 PUSH2 0x136 JUMP JUMPDEST JUMPDEST DUP2 MLOAD PUSH2 0x374 DUP5 DUP3 PUSH1 0x20 DUP7 ADD PUSH2 0x2C8 JUMP JUMPDEST SWAP2 POP POP SWAP3 SWAP2 POP POP JUMP JUMPDEST PUSH1 0x0 PUSH1 0x20 DUP3 DUP5 SUB SLT ISZERO PUSH2 0x393 JUMPI PUSH2 0x392 PUSH2 0x12C JUMP JUMPDEST JUMPDEST PUSH1 0x0 DUP3 ADD MLOAD PUSH8 0xFFFFFFFFFFFFFFFF DUP2 GT ISZERO PUSH2 0x3B1 JUMPI PUSH2 0x3B0 PUSH2 0x131 JUMP JUMPDEST JUMPDEST PUSH2 0x3BD DUP5 DUP3 DUP6 ADD PUSH2 0x34F JUMP JUMPDEST SWAP2 POP POP SWAP3 SWAP2 POP POP JUMP JUMPDEST PUSH32 0x4E487B7100000000000000000000000000000000000000000000000000000000 PUSH1 0x0 MSTORE PUSH1 0x32 PUSH1 0x4 MSTORE PUSH1 0x24 PUSH1 0x0 REVERT JUMPDEST PUSH1 0x0 DUP2 MLOAD SWAP1 POP SWAP2 SWAP1 POP JUMP JUMPDEST PUSH32 0x4E487B7100000000000000000000000000000000000000000000000000000000 PUSH1 0x0 MSTORE PUSH1 0x22 PUSH1 0x4 MSTORE PUSH1 0x24 PUSH1 0x0 REVERT JUMPDEST PUSH1 0x0 PUSH1 0x2 DUP3 DIV SWAP1 POP PUSH1 0x1 DUP3 AND DUP1 PUSH2 0x447 JUMPI PUSH1 0x7F DUP3 AND SWAP2 POP JUMPDEST PUSH1 0x20 DUP3 LT DUP2 SUB PUSH2 0x45A JUMPI PUSH2 0x459 PUSH2 0x400 JUMP JUMPDEST JUMPDEST POP SWAP2 SWAP1 POP JUMP JUMPDEST PUSH1 0x0 DUP2 SWAP1 POP DUP2 PUSH1 0x0 MSTORE PUSH1 0x20 PUSH1 0x0 KECCAK256 SWAP1 POP SWAP2 SWAP1 POP JUMP JUMPDEST PUSH1 0x0 PUSH1 0x20 PUSH1 0x1F DUP4 ADD DIV SWAP1 POP SWAP2 SWAP1 POP JUMP JUMPDEST PUSH1 0x0 DUP3 DUP3 SHL SWAP1 POP SWAP3 SWAP2 POP POP JUMP JUMPDEST PUSH1 0x0 PUSH1 0x8 DUP4 MUL PUSH2 0x4C2 PUSH32 0xFFFFFFFFFFFFFFFFFFFFFFFFFFFFFFFFFFFFFFFFFFFFFFFFFFFFFFFFFFFFFFFF DUP3 PUSH2 0x485 JUMP JUMPDEST PUSH2 0x4CC DUP7 DUP4 PUSH2 0x485 JUMP JUMPDEST SWAP6 POP DUP1 NOT DUP5 AND SWAP4 POP DUP1 DUP7 AND DUP5 OR SWAP3 POP POP POP SWAP4 SWAP3 POP POP POP JUMP JUMPDEST PUSH1 0x0 DUP2 SWAP1 POP SWAP2 SWAP1 POP JUMP JUMPDEST PUSH1 0x0 DUP2 SWAP1 POP SWAP2 SWAP1 POP JUMP JUMPDEST PUSH1 0x0 PUSH2 0x513 PUSH2 0x50E PUSH2 0x509 DUP5 PUSH2 0x4E4 JUMP JUMPDEST PUSH2 0x4EE JUMP JUMPDEST PUSH2 0x4E4 JUMP JUMPDEST SWAP1 POP SWAP2 SWAP1 POP JUMP JUMPDEST PUSH1 0x0 DUP2 SWAP1 POP SWAP2 SWAP1 POP JUMP JUMPDEST PUSH2 0x52D DUP4 PUSH2 0x4F8 JUMP JUMPDEST PUSH2 0x541 PUSH2 0x539 DUP3 PUSH2 0x51A JUMP JUMPDEST DUP5 DUP5 SLOAD PUSH2 0x492 JUMP JUMPDEST DUP3 SSTORE POP POP POP POP JUMP JUMPDEST PUSH1 0x0 SWAP1 JUMP JUMPDEST PUSH2 0x556 PUSH2 0x549 JUMP JUMPDEST PUSH2 0x561 DUP2 DUP5 DUP5 PUSH2 0x524 JUMP JUMPDEST POP POP POP JUMP JUMPDEST JUMPDEST DUP2 DUP2 LT ISZERO PUSH2 0x585 JUMPI PUSH2 0x57A PUSH1 0x0 DUP3 PUSH2 0x54E JUMP JUMPDEST PUSH1 0x1 DUP2 ADD SWAP1 POP PUSH2 0x567 JUMP JUMPDEST POP POP JUMP JUMPDEST PUSH1 0x1F DUP3 GT ISZERO PUSH2 0x5CA JUMPI PUSH2 0x59B DUP2 PUSH2 0x460 JUMP JUMPDEST PUSH2 0x5A4 DUP5 PUSH2 0x475 JUMP JUMPDEST DUP2 ADD PUSH1 0x20 DUP6 LT ISZERO PUSH2 0x5B3 JUMPI DUP2 SWAP1 POP JUMPDEST PUSH2 0x5C7 PUSH2 0x5BF DUP6 PUSH2 0x475 JUMP JUMPDEST DUP4 ADD DUP3 PUSH2 0x566 JUMP JUMPDEST POP POP JUMPDEST POP POP POP JUMP JUMPDEST PUSH1 0x0 DUP3 DUP3 SHR SWAP1 POP SWAP3 SWAP2 POP POP JUMP JUMPDEST PUSH1 0x0 PUSH2 0x5ED PUSH1 0x0 NOT DUP5 PUSH1 0x8 MUL PUSH2 0x5CF JUMP JUMPDEST NOT DUP1 DUP4 AND SWAP2 POP POP SWAP3 SWAP2 POP POP JUMP JUMPDEST PUSH1 0x0 PUSH2 0x606 DUP4 DUP4 PUSH2 0x5DC JUMP JUMPDEST SWAP2 POP DUP3 PUSH1 0x2 MUL DUP3 OR SWAP1 POP SWAP3 SWAP2 POP POP JUMP JUMPDEST PUSH2 0x61F DUP3 PUSH2 0x3F5 JUMP JUMPDEST PUSH8 0xFFFFFFFFFFFFFFFF DUP2 GT ISZERO PUSH2 0x638 JUMPI PUSH2 0x637 PUSH2 0x14C JUMP JUMPDEST JUMPDEST PUSH2 0x642 DUP3 SLOAD PUSH2 0x42F JUMP JUMPDEST PUSH2 0x64D DUP3 DUP3 DUP6 PUSH2 0x589 JUMP JUMPDEST PUSH1 0x0 PUSH1 0x20 SWAP1 POP PUSH1 0x1F DUP4 GT PUSH1 0x1 DUP2 EQ PUSH2 0x680 JUMPI PUSH1 0x0 DUP5 ISZERO PUSH2 0x66E JUMPI DUP3 DUP8 ADD MLOAD SWAP1 POP JUMPDEST PUSH2 0x678 DUP6 DUP3 PUSH2 0x5FA JUMP JUMPDEST DUP7 SSTORE POP PUSH2 0x6E0 JUMP JUMPDEST PUSH1 0x1F NOT DUP5 AND PUSH2 0x68E DUP7 PUSH2 0x460 JUMP JUMPDEST PUSH1 0x0 JUMPDEST DUP3 DUP2 LT ISZERO PUSH2 0x6B6 JUMPI DUP5 DUP10 ADD MLOAD DUP3 SSTORE PUSH1 0x1 DUP3 ADD SWAP2 POP PUSH1 0x20 DUP6 ADD SWAP5 POP PUSH1 0x20 DUP2 ADD SWAP1 POP PUSH2 0x691 JUMP JUMPDEST DUP7 DUP4 LT ISZERO PUSH2 0x6D3 JUMPI DUP5 DUP10 ADD MLOAD PUSH2 0x6CF PUSH1 0x1F DUP10 AND DUP3 PUSH2 0x5DC JUMP JUMPDEST DUP4 SSTORE POP JUMPDEST PUSH1 0x1 PUSH1 0x2 DUP9 MUL ADD DUP9 SSTORE POP POP POP JUMPDEST POP POP POP POP POP POP JUMP JUMPDEST PUSH32 0x4E487B7100000000000000000000000000000000000000000000000000000000 PUSH1 0x0 MSTORE PUSH1 0x11 PUSH1 0x4 MSTORE PUSH1 0x24 PUSH1 0x0 REVERT JUMPDEST PUSH1 0x0 PUSH2 0x722 DUP3 PUSH2 0x4E4 JUMP JUMPDEST SWAP2 POP PUSH32 0xFFFFFFFFFFFFFFFFFFFFFFFFFFFFFFFFFFFFFFFFFFFFFFFFFFFFFFFFFFFFFFFF DUP3 SUB PUSH2 0x754 JUMPI PUSH2 0x753 PUSH2 0x6E8 JUMP JUMPDEST JUMPDEST PUSH1 0x1 DUP3 ADD SWAP1 POP SWAP2 SWAP1 POP JUMP JUMPDEST PUSH2 0x768 DUP2 PUSH2 0x4E4 JUMP JUMPDEST DUP3 MSTORE POP POP JUMP JUMPDEST PUSH1 0x0 DUP3 DUP3 MSTORE PUSH1 0x20 DUP3 ADD SWAP1 POP SWAP3 SWAP2 POP POP JUMP JUMPDEST PUSH1 0x0 PUSH2 0x78A DUP3 PUSH2 0x3F5 JUMP JUMPDEST PUSH2 0x794 DUP2 DUP6 PUSH2 0x76E JUMP JUMPDEST SWAP4 POP PUSH2 0x7A4 DUP2 DUP6 PUSH1 0x20 DUP7 ADD PUSH2 0x22E JUMP JUMPDEST PUSH2 0x7AD DUP2 PUSH2 0x13B JUMP JUMPDEST DUP5 ADD SWAP2 POP POP SWAP3 SWAP2 POP POP JUMP JUMPDEST PUSH1 0x0 PUSH1 0x40 DUP3 ADD SWAP1 POP PUSH2 0x7CD PUSH1 0x0 DUP4 ADD DUP6 PUSH2 0x75F JUMP JUMPDEST DUP2 DUP2 SUB PUSH1 0x20 DUP4 ADD MSTORE PUSH2 0x7DF DUP2 DUP5 PUSH2 0x77F JUMP JUMPDEST SWAP1 POP SWAP4 SWAP3 POP POP POP JUMP JUMPDEST PUSH2 0xBCA DUP1 PUSH2 0x7F7 PUSH1 0x0 CODECOPY PUSH1 0x0 RETURN INVALID PUSH1 0x80 PUSH1 0x40 MSTORE CALLVALUE DUP1 ISZERO PUSH2 0x10 JUMPI PUSH1 0x0 DUP1 REVERT JUMPDEST POP PUSH1 0x4 CALLDATASIZE LT PUSH2 0x57 JUMPI PUSH1 0x0 CALLDATALOAD PUSH1 0xE0 SHR DUP1 PUSH4 0x2D35A8A2 EQ PUSH2 0x5C JUMPI DUP1 PUSH4 0x3477EE2E EQ PUSH2 0x7A JUMPI DUP1 PUSH4 0x79E17080 EQ PUSH2 0xAB JUMPI DUP1 PUSH4 0x8E7EA5B2 EQ PUSH2 0xDB JUMPI DUP1 PUSH4 0x943E8216 EQ PUSH2 0xF9 JUMPI JUMPDEST PUSH1 0x0 DUP1 REVERT JUMPDEST PUSH2 0x64 PUSH2 0x115 JUMP JUMPDEST PUSH1 0x40 MLOAD PUSH2 0x71 SWAP2 SWAP1 PUSH2 0x5D1 JUMP JUMPDEST PUSH1 0x40 MLOAD DUP1 SWAP2 SUB SWAP1 RETURN JUMPDEST PUSH2 0x94 PUSH1 0x4 DUP1 CALLDATASIZE SUB DUP2 ADD SWAP1 PUSH2 0x8F SWAP2 SWAP1 PUSH2 0x61D JUMP JUMPDEST PUSH2 0x11B JUMP JUMPDEST PUSH1 0x40 MLOAD PUSH2 0xA2 SWAP3 SWAP2 SWAP1 PUSH2 0x6DA JUMP JUMPDEST PUSH1 0x40 MLOAD DUP1 SWAP2 SUB SWAP1 RETURN JUMPDEST PUSH2 0xC5 PUSH1 0x4 DUP1 CALLDATASIZE SUB DUP2 ADD SWAP1 PUSH2 0xC0 SWAP2 SWAP1 PUSH2 0x768 JUMP JUMPDEST PUSH2 0x1C7 JUMP JUMPDEST PUSH1 0x40 MLOAD PUSH2 0xD2 SWAP2 SWAP1 PUSH2 0x7B1 JUMP JUMPDEST PUSH1 0x40 MLOAD DUP1 SWAP2 SUB SWAP1 RETURN JUMPDEST PUSH2 0xE3 PUSH2 0x1E7 JUMP JUMPDEST PUSH1 0x40 MLOAD PUSH2 0xF0 SWAP2 SWAP1 PUSH2 0x7CC JUMP JUMPDEST PUSH1 0x40 MLOAD DUP1 SWAP2 SUB SWAP1 RETURN JUMPDEST PUSH2 0x113 PUSH1 0x4 DUP1 CALLDATASIZE SUB DUP2 ADD SWAP1 PUSH2 0x10E SWAP2 SWAP1 PUSH2 0x81A JUMP JUMPDEST PUSH2 0x2DF JUMP JUMPDEST STOP JUMPDEST PUSH1 0x1 SLOAD DUP2 JUMP JUMPDEST PUSH1 0x0 PUSH1 0x20 MSTORE DUP1 PUSH1 0x0 MSTORE PUSH1 0x40 PUSH1 0x0 KECCAK256 PUSH1 0x0 SWAP2 POP SWAP1 POP DUP1 PUSH1 0x0 ADD DUP1 SLOAD PUSH2 0x13E SWAP1 PUSH2 0x889 JUMP JUMPDEST DUP1 PUSH1 0x1F ADD PUSH1 0x20 DUP1 SWAP2 DIV MUL PUSH1 0x20 ADD PUSH1 0x40 MLOAD SWAP1 DUP2 ADD PUSH1 0x40 MSTORE DUP1 SWAP3 SWAP2 SWAP1 DUP2 DUP2 MSTORE PUSH1 0x20 ADD DUP3 DUP1 SLOAD PUSH2 0x16A SWAP1 PUSH2 0x889 JUMP JUMPDEST DUP1 ISZERO PUSH2 0x1B7 JUMPI DUP1 PUSH1 0x1F LT PUSH2 0x18C JUMPI PUSH2 0x100 DUP1 DUP4 SLOAD DIV MUL DUP4 MSTORE SWAP2 PUSH1 0x20 ADD SWAP2 PUSH2 0x1B7 JUMP JUMPDEST DUP3 ADD SWAP2 SWAP1 PUSH1 0x0 MSTORE PUSH1 0x20 PUSH1 0x0 KECCAK256 SWAP1 JUMPDEST DUP2 SLOAD DUP2 MSTORE SWAP1 PUSH1 0x1 ADD SWAP1 PUSH1 0x20 ADD DUP1 DUP4 GT PUSH2 0x19A JUMPI DUP3 SWAP1 SUB PUSH1 0x1F AND DUP3 ADD SWAP2 JUMPDEST POP POP POP POP POP SWAP1 DUP1 PUSH1 0x1 ADD SLOAD SWAP1 POP DUP3 JUMP JUMPDEST PUSH1 0x2 PUSH1 0x20 MSTORE DUP1 PUSH1 0x0 MSTORE PUSH1 0x40 PUSH1 0x0 KECCAK256 PUSH1 0x0 SWAP2 POP SLOAD SWAP1 PUSH2 0x100 EXP SWAP1 DIV PUSH1 0xFF AND DUP2 JUMP JUMPDEST PUSH1 0x60 PUSH1 0x0 DUP1 JUMPDEST PUSH1 0x1 SLOAD DUP2 LT ISZERO PUSH2 0x2DA JUMPI DUP2 PUSH1 0x0 DUP1 DUP4 DUP2 MSTORE PUSH1 0x20 ADD SWAP1 DUP2 MSTORE PUSH1 0x20 ADD PUSH1 0x0 KECCAK256 PUSH1 0x1 ADD SLOAD GT ISZERO PUSH2 0x2CD JUMPI PUSH1 0x0 DUP1 DUP3 DUP2 MSTORE PUSH1 0x20 ADD SWAP1 DUP2 MSTORE PUSH1 0x20 ADD PUSH1 0x0 KECCAK256 PUSH1 0x1 ADD SLOAD SWAP2 POP PUSH1 0x0 DUP1 DUP3 DUP2 MSTORE PUSH1 0x20 ADD SWAP1 DUP2 MSTORE PUSH1 0x20 ADD PUSH1 0x0 KECCAK256 PUSH1 0x0 ADD DUP1 SLOAD PUSH2 0x24C SWAP1 PUSH2 0x889 JUMP JUMPDEST DUP1 PUSH1 0x1F ADD PUSH1 0x20 DUP1 SWAP2 DIV MUL PUSH1 0x20 ADD PUSH1 0x40 MLOAD SWAP1 DUP2 ADD PUSH1 0x40 MSTORE DUP1 SWAP3 SWAP2 SWAP1 DUP2 DUP2 MSTORE PUSH1 0x20 ADD DUP3 DUP1 SLOAD PUSH2 0x278 SWAP1 PUSH2 0x889 JUMP JUMPDEST DUP1 ISZERO PUSH2 0x2C5 JUMPI DUP1 PUSH1 0x1F LT PUSH2 0x29A JUMPI PUSH2 0x100 DUP1 DUP4 SLOAD DIV MUL DUP4 MSTORE SWAP2 PUSH1 0x20 ADD SWAP2 PUSH2 0x2C5 JUMP JUMPDEST DUP3 ADD SWAP2 SWAP1 PUSH1 0x0 MSTORE PUSH1 0x20 PUSH1 0x0 KECCAK256 SWAP1 JUMPDEST DUP2 SLOAD DUP2 MSTORE SWAP1 PUSH1 0x1 ADD SWAP1 PUSH1 0x20 ADD DUP1 DUP4 GT PUSH2 0x2A8 JUMPI DUP3 SWAP1 SUB PUSH1 0x1F AND DUP3 ADD SWAP2 JUMPDEST POP POP POP POP POP SWAP3 POP JUMPDEST DUP1 DUP1 PUSH1 0x1 ADD SWAP2 POP POP PUSH2 0x1ED JUMP JUMPDEST POP POP SWAP1 JUMP JUMPDEST PUSH1 0x3 PUSH1 0x2 PUSH1 0x0 CALLER PUSH20 0xFFFFFFFFFFFFFFFFFFFFFFFFFFFFFFFFFFFFFFFF AND PUSH20 0xFFFFFFFFFFFFFFFFFFFFFFFFFFFFFFFFFFFFFFFF AND DUP2 MSTORE PUSH1 0x20 ADD SWAP1 DUP2 MSTORE PUSH1 0x20 ADD PUSH1 0x0 KECCAK256 PUSH1 0x0 SWAP1 SLOAD SWAP1 PUSH2 0x100 EXP SWAP1 DIV PUSH1 0xFF AND PUSH1 0xFF AND LT PUSH2 0x371 JUMPI PUSH1 0x40 MLOAD PUSH32 0x8C379A000000000000000000000000000000000000000000000000000000000 DUP2 MSTORE PUSH1 0x4 ADD PUSH2 0x368 SWAP1 PUSH2 0x92C JUMP JUMPDEST PUSH1 0x40 MLOAD DUP1 SWAP2 SUB SWAP1 REVERT JUMPDEST PUSH1 0x1 SLOAD DUP3 LT PUSH2 0x3B5 JUMPI PUSH1 0x40 MLOAD PUSH32 0x8C379A000000000000000000000000000000000000000000000000000000000 DUP2 MSTORE PUSH1 0x4 ADD PUSH2 0x3AC SWAP1 PUSH2 0x998 JUMP JUMPDEST PUSH1 0x40 MLOAD DUP1 SWAP2 SUB SWAP1 REVERT JUMPDEST PUSH1 0x1 DUP2 PUSH1 0xFF AND LT ISZERO DUP1 ISZERO PUSH2 0x3CD JUMPI POP PUSH1 0x3 DUP2 PUSH1 0xFF AND GT ISZERO JUMPDEST PUSH2 0x40C JUMPI PUSH1 0x40 MLOAD PUSH32 0x8C379A000000000000000000000000000000000000000000000000000000000 DUP2 MSTORE PUSH1 0x4 ADD PUSH2 0x403 SWAP1 PUSH2 0xA04 JUMP JUMPDEST PUSH1 0x40 MLOAD DUP1 SWAP2 SUB SWAP1 REVERT JUMPDEST PUSH1 0x6 DUP2 PUSH1 0x2 PUSH1 0x0 CALLER PUSH20 0xFFFFFFFFFFFFFFFFFFFFFFFFFFFFFFFFFFFFFFFF AND PUSH20 0xFFFFFFFFFFFFFFFFFFFFFFFFFFFFFFFFFFFFFFFF AND DUP2 MSTORE PUSH1 0x20 ADD SWAP1 DUP2 MSTORE PUSH1 0x20 ADD PUSH1 0x0 KECCAK256 PUSH1 0x0 SWAP1 SLOAD SWAP1 PUSH2 0x100 EXP SWAP1 DIV PUSH1 0xFF AND PUSH2 0x466 SWAP2 SWAP1 PUSH2 0xA53 JUMP JUMPDEST PUSH1 0xFF AND GT ISZERO PUSH2 0x4AA JUMPI PUSH1 0x40 MLOAD PUSH32 0x8C379A000000000000000000000000000000000000000000000000000000000 DUP2 MSTORE PUSH1 0x4 ADD PUSH2 0x4A1 SWAP1 PUSH2 0xAFA JUMP JUMPDEST PUSH1 0x40 MLOAD DUP1 SWAP2 SUB SWAP1 REVERT JUMPDEST PUSH1 0x0 PUSH1 0x1 DUP3 PUSH1 0xFF AND EQ PUSH2 0x4D1 JUMPI PUSH1 0x2 DUP3 PUSH1 0xFF AND EQ PUSH2 0x4C9 JUMPI PUSH1 0x1 PUSH2 0x4CC JUMP JUMPDEST PUSH1 0x3 JUMPDEST PUSH2 0x4D4 JUMP JUMPDEST PUSH1 0x5 JUMPDEST PUSH1 0xFF AND SWAP1 POP DUP1 PUSH1 0x0 DUP1 DUP6 DUP2 MSTORE PUSH1 0x20 ADD SWAP1 DUP2 MSTORE PUSH1 0x20 ADD PUSH1 0x0 KECCAK256 PUSH1 0x1 ADD PUSH1 0x0 DUP3 DUP3 SLOAD PUSH2 0x4FE SWAP2 SWAP1 PUSH2 0xB1A JUMP JUMPDEST SWAP3 POP POP DUP2 SWAP1 SSTORE POP DUP2 PUSH1 0x2 PUSH1 0x0 CALLER PUSH20 0xFFFFFFFFFFFFFFFFFFFFFFFFFFFFFFFFFFFFFFFF AND PUSH20 0xFFFFFFFFFFFFFFFFFFFFFFFFFFFFFFFFFFFFFFFF AND DUP2 MSTORE PUSH1 0x20 ADD SWAP1 DUP2 MSTORE PUSH1 0x20 ADD PUSH1 0x0 KECCAK256 PUSH1 0x0 DUP3 DUP3 DUP3 SWAP1 SLOAD SWAP1 PUSH2 0x100 EXP SWAP1 DIV PUSH1 0xFF AND PUSH2 0x560 SWAP2 SWAP1 PUSH2 0xA53 JUMP JUMPDEST SWAP3 POP PUSH2 0x100 EXP DUP2 SLOAD DUP2 PUSH1 0xFF MUL NOT AND SWAP1 DUP4 PUSH1 0xFF AND MUL OR SWAP1 SSTORE POP PUSH32 0xCB87DF07B1C304492BD875A5C8B98672ECA500939412809EA229AFEF1D745188 CALLER DUP5 DUP4 PUSH1 0x40 MLOAD PUSH2 0x5AB SWAP4 SWAP3 SWAP2 SWAP1 PUSH2 0xB5D JUMP JUMPDEST PUSH1 0x40 MLOAD DUP1 SWAP2 SUB SWAP1 LOG1 POP POP POP JUMP JUMPDEST PUSH1 0x0 DUP2 SWAP1 POP SWAP2 SWAP1 POP JUMP JUMPDEST PUSH2 0x5CB DUP2 PUSH2 0x5B8 JUMP JUMPDEST DUP3 MSTORE POP POP JUMP JUMPDEST PUSH1 0x0 PUSH1 0x20 DUP3 ADD SWAP1 POP PUSH2 0x5E6 PUSH1 0x0 DUP4 ADD DUP5 PUSH2 0x5C2 JUMP JUMPDEST SWAP3 SWAP2 POP POP JUMP JUMPDEST PUSH1 0x0 DUP1 REVERT JUMPDEST PUSH2 0x5FA DUP2 PUSH2 0x5B8 JUMP JUMPDEST DUP2 EQ PUSH2 0x605 JUMPI PUSH1 0x0 DUP1 REVERT JUMPDEST POP JUMP JUMPDEST PUSH1 0x0 DUP2 CALLDATALOAD SWAP1 POP PUSH2 0x617 DUP2 PUSH2 0x5F1 JUMP JUMPDEST SWAP3 SWAP2 POP POP JUMP JUMPDEST PUSH1 0x0 PUSH1 0x20 DUP3 DUP5 SUB SLT ISZERO PUSH2 0x633 JUMPI PUSH2 0x632 PUSH2 0x5EC JUMP JUMPDEST JUMPDEST PUSH1 0x0 PUSH2 0x641 DUP5 DUP3 DUP6 ADD PUSH2 0x608 JUMP JUMPDEST SWAP2 POP POP SWAP3 SWAP2 POP POP JUMP JUMPDEST PUSH1 0x0 DUP2 MLOAD SWAP1 POP SWAP2 SWAP1 POP JUMP JUMPDEST PUSH1 0x0 DUP3 DUP3 MSTORE PUSH1 0x20 DUP3 ADD SWAP1 POP SWAP3 SWAP2 POP POP JUMP JUMPDEST PUSH1 0x0 JUMPDEST DUP4 DUP2 LT ISZERO PUSH2 0x684 JUMPI DUP1 DUP3 ADD MLOAD DUP2 DUP5 ADD MSTORE PUSH1 0x20 DUP2 ADD SWAP1 POP PUSH2 0x669 JUMP JUMPDEST PUSH1 0x0 DUP5 DUP5 ADD MSTORE POP POP POP POP JUMP JUMPDEST PUSH1 0x0 PUSH1 0x1F NOT PUSH1 0x1F DUP4 ADD AND SWAP1 POP SWAP2 SWAP1 POP JUMP JUMPDEST PUSH1 0x0 PUSH2 0x6AC DUP3 PUSH2 0x64A JUMP JUMPDEST PUSH2 0x6B6 DUP2 DUP6 PUSH2 0x655 JUMP JUMPDEST SWAP4 POP PUSH2 0x6C6 DUP2 DUP6 PUSH1 0x20 DUP7 ADD PUSH2 0x666 JUMP JUMPDEST PUSH2 0x6CF DUP2 PUSH2 0x690 JUMP JUMPDEST DUP5 ADD SWAP2 POP POP SWAP3 SWAP2 POP POP JUMP JUMPDEST PUSH1 0x0 PUSH1 0x40 DUP3 ADD SWAP1 POP DUP2 DUP2 SUB PUSH1 0x0 DUP4 ADD MSTORE PUSH2 0x6F4 DUP2 DUP6 PUSH2 0x6A1 JUMP JUMPDEST SWAP1 POP PUSH2 0x703 PUSH1 0x20 DUP4 ADD DUP5 PUSH2 0x5C2 JUMP JUMPDEST SWAP4 SWAP3 POP POP POP JUMP JUMPDEST PUSH1 0x0 PUSH20 0xFFFFFFFFFFFFFFFFFFFFFFFFFFFFFFFFFFFFFFFF DUP3 AND SWAP1 POP SWAP2 SWAP1 POP JUMP JUMPDEST PUSH1 0x0 PUSH2 0x735 DUP3 PUSH2 0x70A JUMP JUMPDEST SWAP1 POP SWAP2 SWAP1 POP JUMP JUMPDEST PUSH2 0x745 DUP2 PUSH2 0x72A JUMP JUMPDEST DUP2 EQ PUSH2 0x750 JUMPI PUSH1 0x0 DUP1 REVERT JUMPDEST POP JUMP JUMPDEST PUSH1 0x0 DUP2 CALLDATALOAD SWAP1 POP PUSH2 0x762 DUP2 PUSH2 0x73C JUMP JUMPDEST SWAP3 SWAP2 POP POP JUMP JUMPDEST PUSH1 0x0 PUSH1 0x20 DUP3 DUP5 SUB SLT ISZERO PUSH2 0x77E JUMPI PUSH2 0x77D PUSH2 0x5EC JUMP JUMPDEST JUMPDEST PUSH1 0x0 PUSH2 0x78C DUP5 DUP3 DUP6 ADD PUSH2 0x753 JUMP JUMPDEST SWAP2 POP POP SWAP3 SWAP2 POP POP JUMP JUMPDEST PUSH1 0x0 PUSH1 0xFF DUP3 AND SWAP1 POP SWAP2 SWAP1 POP JUMP JUMPDEST PUSH2 0x7AB DUP2 PUSH2 0x795 JUMP JUMPDEST DUP3 MSTORE POP POP JUMP JUMPDEST PUSH1 0x0 PUSH1 0x20 DUP3 ADD SWAP1 POP PUSH2 0x7C6 PUSH1 0x0 DUP4 ADD DUP5 PUSH2 0x7A2 JUMP JUMPDEST SWAP3 SWAP2 POP POP JUMP JUMPDEST PUSH1 0x0 PUSH1 0x20 DUP3 ADD SWAP1 POP DUP2 DUP2 SUB PUSH1 0x0 DUP4 ADD MSTORE PUSH2 0x7E6 DUP2 DUP5 PUSH2 0x6A1 JUMP JUMPDEST SWAP1 POP SWAP3 SWAP2 POP POP JUMP JUMPDEST PUSH2 0x7F7 DUP2 PUSH2 0x795 JUMP JUMPDEST DUP2 EQ PUSH2 0x802 JUMPI PUSH1 0x0 DUP1 REVERT JUMPDEST POP JUMP JUMPDEST PUSH1 0x0 DUP2 CALLDATALOAD SWAP1 POP PUSH2 0x814 DUP2 PUSH2 0x7EE JUMP JUMPDEST SWAP3 SWAP2 POP POP JUMP JUMPDEST PUSH1 0x0 DUP1 PUSH1 0x40 DUP4 DUP6 SUB SLT ISZERO PUSH2 0x831 JUMPI PUSH2 0x830 PUSH2 0x5EC JUMP JUMPDEST JUMPDEST PUSH1 0x0 PUSH2 0x83F DUP6 DUP3 DUP7 ADD PUSH2 0x608 JUMP JUMPDEST SWAP3 POP POP PUSH1 0x20 PUSH2 0x850 DUP6 DUP3 DUP7 ADD PUSH2 0x805 JUMP JUMPDEST SWAP2 POP POP SWAP3 POP SWAP3 SWAP1 POP JUMP JUMPDEST PUSH32 0x4E487B7100000000000000000000000000000000000000000000000000000000 PUSH1 0x0 MSTORE PUSH1 0x22 PUSH1 0x4 MSTORE PUSH1 0x24 PUSH1 0x0 REVERT JUMPDEST PUSH1 0x0 PUSH1 0x2 DUP3 DIV SWAP1 POP PUSH1 0x1 DUP3 AND DUP1 PUSH2 0x8A1 JUMPI PUSH1 0x7F DUP3 AND SWAP2 POP JUMPDEST PUSH1 0x20 DUP3 LT DUP2 SUB PUSH2 0x8B4 JUMPI PUSH2 0x8B3 PUSH2 0x85A JUMP JUMPDEST JUMPDEST POP SWAP2 SWAP1 POP JUMP JUMPDEST PUSH32 0x596F752063616E20636173742061206D6178696D756D206F66203320766F7465 PUSH1 0x0 DUP3 ADD MSTORE PUSH32 0x732E000000000000000000000000000000000000000000000000000000000000 PUSH1 0x20 DUP3 ADD MSTORE POP JUMP JUMPDEST PUSH1 0x0 PUSH2 0x916 PUSH1 0x22 DUP4 PUSH2 0x655 JUMP JUMPDEST SWAP2 POP PUSH2 0x921 DUP3 PUSH2 0x8BA JUMP JUMPDEST PUSH1 0x40 DUP3 ADD SWAP1 POP SWAP2 SWAP1 POP JUMP JUMPDEST PUSH1 0x0 PUSH1 0x20 DUP3 ADD SWAP1 POP DUP2 DUP2 SUB PUSH1 0x0 DUP4 ADD MSTORE PUSH2 0x945 DUP2 PUSH2 0x909 JUMP JUMPDEST SWAP1 POP SWAP2 SWAP1 POP JUMP JUMPDEST PUSH32 0x496E76616C69642063616E6469646174652049442E0000000000000000000000 PUSH1 0x0 DUP3 ADD MSTORE POP JUMP JUMPDEST PUSH1 0x0 PUSH2 0x982 PUSH1 0x15 DUP4 PUSH2 0x655 JUMP JUMPDEST SWAP2 POP PUSH2 0x98D DUP3 PUSH2 0x94C JUMP JUMPDEST PUSH1 0x20 DUP3 ADD SWAP1 POP SWAP2 SWAP1 POP JUMP JUMPDEST PUSH1 0x0 PUSH1 0x20 DUP3 ADD SWAP1 POP DUP2 DUP2 SUB PUSH1 0x0 DUP4 ADD MSTORE PUSH2 0x9B1 DUP2 PUSH2 0x975 JUMP JUMPDEST SWAP1 POP SWAP2 SWAP1 POP JUMP JUMPDEST PUSH32 0x566F74652072616E6B206D75737420626520312C20322C206F7220332E000000 PUSH1 0x0 DUP3 ADD MSTORE POP JUMP JUMPDEST PUSH1 0x0 PUSH2 0x9EE PUSH1 0x1D DUP4 PUSH2 0x655 JUMP JUMPDEST SWAP2 POP PUSH2 0x9F9 DUP3 PUSH2 0x9B8 JUMP JUMPDEST PUSH1 0x20 DUP3 ADD SWAP1 POP SWAP2 SWAP1 POP JUMP JUMPDEST PUSH1 0x0 PUSH1 0x20 DUP3 ADD SWAP1 POP DUP2 DUP2 SUB PUSH1 0x0 DUP4 ADD MSTORE PUSH2 0xA1D DUP2 PUSH2 0x9E1 JUMP JUMPDEST SWAP1 POP SWAP2 SWAP1 POP JUMP JUMPDEST PUSH32 0x4E487B7100000000000000000000000000000000000000000000000000000000 PUSH1 0x0 MSTORE PUSH1 0x11 PUSH1 0x4 MSTORE PUSH1 0x24 PUSH1 0x0 REVERT JUMPDEST PUSH1 0x0 PUSH2 0xA5E DUP3 PUSH2 0x795 JUMP JUMPDEST SWAP2 POP PUSH2 0xA69 DUP4 PUSH2 0x795 JUMP JUMPDEST SWAP3 POP DUP3 DUP3 ADD SWAP1 POP PUSH1 0xFF DUP2 GT ISZERO PUSH2 0xA82 JUMPI PUSH2 0xA81 PUSH2 0xA24 JUMP JUMPDEST JUMPDEST SWAP3 SWAP2 POP POP JUMP JUMPDEST PUSH32 0x457863656564696E672074686520746F74616C20616C6C6F77656420766F7465 PUSH1 0x0 DUP3 ADD MSTORE PUSH32 0x732E000000000000000000000000000000000000000000000000000000000000 PUSH1 0x20 DUP3 ADD MSTORE POP JUMP JUMPDEST PUSH1 0x0 PUSH2 0xAE4 PUSH1 0x22 DUP4 PUSH2 0x655 JUMP JUMPDEST SWAP2 POP PUSH2 0xAEF DUP3 PUSH2 0xA88 JUMP JUMPDEST PUSH1 0x40 DUP3 ADD SWAP1 POP SWAP2 SWAP1 POP JUMP JUMPDEST PUSH1 0x0 PUSH1 0x20 DUP3 ADD SWAP1 POP DUP2 DUP2 SUB PUSH1 0x0 DUP4 ADD MSTORE PUSH2 0xB13 DUP2 PUSH2 0xAD7 JUMP JUMPDEST SWAP1 POP SWAP2 SWAP1 POP JUMP JUMPDEST PUSH1 0x0 PUSH2 0xB25 DUP3 PUSH2 0x5B8 JUMP JUMPDEST SWAP2 POP PUSH2 0xB30 DUP4 PUSH2 0x5B8 JUMP JUMPDEST SWAP3 POP DUP3 DUP3 ADD SWAP1 POP DUP1 DUP3 GT ISZERO PUSH2 0xB48 JUMPI PUSH2 0xB47 PUSH2 0xA24 JUMP JUMPDEST JUMPDEST SWAP3 SWAP2 POP POP JUMP JUMPDEST PUSH2 0xB57 DUP2 PUSH2 0x72A JUMP JUMPDEST DUP3 MSTORE POP POP JUMP JUMPDEST PUSH1 0x0 PUSH1 0x60 DUP3 ADD SWAP1 POP PUSH2 0xB72 PUSH1 0x0 DUP4 ADD DUP7 PUSH2 0xB4E JUMP JUMPDEST PUSH2 0xB7F PUSH1 0x20 DUP4 ADD DUP6 PUSH2 0x5C2 JUMP JUMPDEST PUSH2 0xB8C PUSH1 0x40 DUP4 ADD DUP5 PUSH2 0x5C2 JUMP JUMPDEST SWAP5 SWAP4 POP POP POP POP JUMP INVALID LOG2 PUSH5 0x6970667358 0x22 SLT KECCAK256 PUSH32 0x369B4237E5EC24A6C18CFFAF00F161332C84184B4BE9D34CC5D34E1C004A4A64 PUSH20 0x6F6C634300081C00330000000000000000000000 "
        },
        "methodIdentifiers": {
          "candidates(uint256)": "3477ee2e",
          "candidatesCount()": "2d35a8a2",
          "getWinner()": "8e7ea5b2",
          "vote(uint256,uint8)": "943e8216",
          "votesCast(address)": "79e17080"
        }
      }
    }
  }
}