{
  "_format": "hh-sol-artifact-1",
  "contractName": "Voting",
  "sourceName": "contracts/Lock.sol",
  "abi": [
    {
      "inputs": [
        {
          "internalType": "string[]",
          "name": "_candidates",
          "type": "string[]"
        }
      ],
      "stateMutability": "nonpayable",
      "type": "constructor"
    },
    {
      "anonymous": false,
      "inputs": [
        {
          "indexed": false,
          "internalType": "uint256",
          "name": "id",
          "type": "uint256"
        },
        {
          "indexed": false,
          "internalType": "string",
          "name": "name",
          "type": "string"
        }
      ],
      "name": "CandidateAdded",
      "type": "event"
    },
    {
      "anonymous": false,
      "inputs": [
        {
          "indexed": false,
          "internalType": "address",
          "name": "voter",
          "type": "address"
        },
        {
          "indexed": false,
          "internalType": "uint256",
          "name": "candidateId",
          "type": "uint256"
        },
        {
          "indexed": false,
          "internalType": "uint256",
          "name": "points",
          "type": "uint256"
        }
      ],
      "name": "VoteCasted",
      "type": "event"
    },
    {
      "anonymous": false,
      "inputs": [
        {
          "indexed": false,
          "internalType": "string",
          "name": "name",
          "type": "string"
        },
        {
          "indexed": false,
          "internalType": "uint256",
          "name": "points",
          "type": "uint256"
        }
      ],
      "name": "WinnerAnnounced",
      "type": "event"
    },
    {
      "inputs": [
        {
          "internalType": "uint256",
          "name": "",
          "type": "uint256"
        }
      ],
      "name": "candidates",
      "outputs": [
        {
          "internalType": "string",
          "name": "name",
          "type": "string"
        },
        {
          "internalType": "uint256",
          "name": "points",
          "type": "uint256"
        }
      ],
      "stateMutability": "view",
      "type": "function"
    },
    {
      "inputs": [],
      "name": "candidatesCount",
      "outputs": [
        {
          "internalType": "uint256",
          "name": "",
          "type": "uint256"
        }
      ],
      "stateMutability": "view",
      "type": "function"
    },
    {
      "inputs": [],
      "name": "getWinner",
      "outputs": [
        {
          "internalType": "string",
          "name": "winnerName",
          "type": "string"
        }
      ],
      "stateMutability": "view",
      "type": "function"
    },
    {
      "inputs": [
        {
          "internalType": "uint256",
          "name": "_candidateId",
          "type": "uint256"
        },
        {
          "internalType": "uint8",
          "name": "_voteRank",
          "type": "uint8"
        }
      ],
      "name": "vote",
      "outputs": [],
      "stateMutability": "nonpayable",
      "type": "function"
    },
    {
      "inputs": [
        {
          "internalType": "address",
          "name": "",
          "type": "address"
        }
      ],
      "name": "votesCast",
      "outputs": [
        {
          "internalType": "uint8",
          "name": "",
          "type": "uint8"
        }
      ],
      "stateMutability": "view",
      "type": "function"
    }
  ],
  "bytecode": "0x608060405234801561001057600080fd5b506040516113c13803806113c18339818101604052810190610032919061037d565b60005b815181101561011b57604051806040016040528083838151811061005c5761005b6103c6565b5b60200260200101518152602001600081525060008083815260200190815260200160002060008201518160000190816100959190610616565b5060208201518160010155905050600160008154809291906100b690610717565b91905055507fe83b2a43e7e82d975c8a0a6d2f045153c869e111136a34d1889ab7b598e396a3818383815181106100f0576100ef6103c6565b5b60200260200101516040516101069291906107b8565b60405180910390a18080600101915050610035565b50506107e8565b6000604051905090565b600080fd5b600080fd5b600080fd5b6000601f19601f8301169050919050565b7f4e487b7100000000000000000000000000000000000000000000000000000000600052604160045260246000fd5b6101848261013b565b810181811067ffffffffffffffff821117156101a3576101a261014c565b5b80604052505050565b60006101b6610122565b90506101c2828261017b565b919050565b600067ffffffffffffffff8211156101e2576101e161014c565b5b602082029050602081019050919050565b600080fd5b600080fd5b600067ffffffffffffffff8211156102185761021761014c565b5b6102218261013b565b9050602081019050919050565b60005b8381101561024c578082015181840152602081019050610231565b60008484015250505050565b600061026b610266846101fd565b6101ac565b905082815260208101848484011115610287576102866101f8565b5b61029284828561022e565b509392505050565b600082601f8301126102af576102ae610136565b5b81516102bf848260208601610258565b91505092915050565b60006102db6102d6846101c7565b6101ac565b905080838252602082019050602084028301858111156102fe576102fd6101f3565b5b835b8181101561034557805167ffffffffffffffff81111561032357610322610136565b5b808601610330898261029a565b85526020850194505050602081019050610300565b5050509392505050565b600082601f83011261036457610363610136565b5b81516103748482602086016102c8565b91505092915050565b6000602082840312156103935761039261012c565b5b600082015167ffffffffffffffff8111156103b1576103b0610131565b5b6103bd8482850161034f565b91505092915050565b7f4e487b7100000000000000000000000000000000000000000000000000000000600052603260045260246000fd5b600081519050919050565b7f4e487b7100000000000000000000000000000000000000000000000000000000600052602260045260246000fd5b6000600282049050600182168061044757607f821691505b60208210810361045a57610459610400565b5b50919050565b60008190508160005260206000209050919050565b60006020601f8301049050919050565b600082821b905092915050565b6000600883026104c27fffffffffffffffffffffffffffffffffffffffffffffffffffffffffffffffff82610485565b6104cc8683610485565b95508019841693508086168417925050509392505050565b6000819050919050565b6000819050919050565b600061051361050e610509846104e4565b6104ee565b6104e4565b9050919050565b6000819050919050565b61052d836104f8565b6105416105398261051a565b848454610492565b825550505050565b600090565b610556610549565b610561818484610524565b505050565b5b818110156105855761057a60008261054e565b600181019050610567565b5050565b601f8211156105ca5761059b81610460565b6105a484610475565b810160208510156105b3578190505b6105c76105bf85610475565b830182610566565b50505b505050565b600082821c905092915050565b60006105ed600019846008026105cf565b1980831691505092915050565b600061060683836105dc565b9150826002028217905092915050565b61061f826103f5565b67ffffffffffffffff8111156106385761063761014c565b5b610642825461042f565b61064d828285610589565b600060209050601f831160018114610680576000841561066e578287015190505b61067885826105fa565b8655506106e0565b601f19841661068e86610460565b60005b828110156106b657848901518255600182019150602085019450602081019050610691565b868310156106d357848901516106cf601f8916826105dc565b8355505b6001600288020188555050505b505050505050565b7f4e487b7100000000000000000000000000000000000000000000000000000000600052601160045260246000fd5b6000610722826104e4565b91507fffffffffffffffffffffffffffffffffffffffffffffffffffffffffffffffff8203610754576107536106e8565b5b600182019050919050565b610768816104e4565b82525050565b600082825260208201905092915050565b600061078a826103f5565b610794818561076e565b93506107a481856020860161022e565b6107ad8161013b565b840191505092915050565b60006040820190506107cd600083018561075f565b81810360208301526107df818461077f565b90509392505050565b610bca806107f76000396000f3fe608060405234801561001057600080fd5b50600436106100575760003560e01c80632d35a8a21461005c5780633477ee2e1461007a57806379e17080146100ab5780638e7ea5b2146100db578063943e8216146100f9575b600080fd5b610064610115565b60405161007191906105d1565b60405180910390f35b610094600480360381019061008f919061061d565b61011b565b6040516100a29291906106da565b60405180910390f35b6100c560048036038101906100c09190610768565b6101c7565b6040516100d291906107b1565b60405180910390f35b6100e36101e7565b6040516100f091906107cc565b60405180910390f35b610113600480360381019061010e919061081a565b6102df565b005b60015481565b600060205280600052604060002060009150905080600001805461013e90610889565b80601f016020809104026020016040519081016040528092919081815260200182805461016a90610889565b80156101b75780601f1061018c576101008083540402835291602001916101b7565b820191906000526020600020905b81548152906001019060200180831161019a57829003601f168201915b5050505050908060010154905082565b60026020528060005260406000206000915054906101000a900460ff1681565b60606000805b6001548110156102da57816000808381526020019081526020016000206001015411156102cd57600080828152602001908152602001600020600101549150600080828152602001908152602001600020600001805461024c90610889565b80601f016020809104026020016040519081016040528092919081815260200182805461027890610889565b80156102c55780601f1061029a576101008083540402835291602001916102c5565b820191906000526020600020905b8154815290600101906020018083116102a857829003601f168201915b505050505092505b80806001019150506101ed565b505090565b6003600260003373ffffffffffffffffffffffffffffffffffffffff1673ffffffffffffffffffffffffffffffffffffffff16815260200190815260200160002060009054906101000a900460ff1660ff1610610371576040517f08c379a00000000000000000000000000000000000000000000000000000000081526004016103689061092c565b60405180910390fd5b60015482106103b5576040517f08c379a00000000000000000000000000000000000000000000000000000000081526004016103ac90610998565b60405180910390fd5b60018160ff16101580156103cd575060038160ff1611155b61040c576040517f08c379a000000000000000000000000000000000000000000000000000000000815260040161040390610a04565b60405180910390fd5b600681600260003373ffffffffffffffffffffffffffffffffffffffff1673ffffffffffffffffffffffffffffffffffffffff16815260200190815260200160002060009054906101000a900460ff166104669190610a53565b60ff1611156104aa576040517f08c379a00000000000000000000000000000000000000000000000000000000081526004016104a190610afa565b60405180910390fd5b600060018260ff16146104d15760028260ff16146104c95760016104cc565b60035b6104d4565b60055b60ff1690508060008085815260200190815260200160002060010160008282546104fe9190610b1a565b9250508190555081600260003373ffffffffffffffffffffffffffffffffffffffff1673ffffffffffffffffffffffffffffffffffffffff16815260200190815260200160002060008282829054906101000a900460ff166105609190610a53565b92506101000a81548160ff021916908360ff1602179055507fcb87df07b1c304492bd875a5c8b98672eca500939412809ea229afef1d7451883384836040516105ab93929190610b5d565b60405180910390a1505050565b6000819050919050565b6105cb816105b8565b82525050565b60006020820190506105e660008301846105c2565b92915050565b600080fd5b6105fa816105b8565b811461060557600080fd5b50565b600081359050610617816105f1565b92915050565b600060208284031215610633576106326105ec565b5b600061064184828501610608565b91505092915050565b600081519050919050565b600082825260208201905092915050565b60005b83811015610684578082015181840152602081019050610669565b60008484015250505050565b6000601f19601f8301169050919050565b60006106ac8261064a565b6106b68185610655565b93506106c6818560208601610666565b6106cf81610690565b840191505092915050565b600060408201905081810360008301526106f481856106a1565b905061070360208301846105c2565b9392505050565b600073ffffffffffffffffffffffffffffffffffffffff82169050919050565b60006107358261070a565b9050919050565b6107458161072a565b811461075057600080fd5b50565b6000813590506107628161073c565b92915050565b60006020828403121561077e5761077d6105ec565b5b600061078c84828501610753565b91505092915050565b600060ff82169050919050565b6107ab81610795565b82525050565b60006020820190506107c660008301846107a2565b92915050565b600060208201905081810360008301526107e681846106a1565b905092915050565b6107f781610795565b811461080257600080fd5b50565b600081359050610814816107ee565b92915050565b60008060408385031215610831576108306105ec565b5b600061083f85828601610608565b925050602061085085828601610805565b9150509250929050565b7f4e487b7100000000000000000000000000000000000000000000000000000000600052602260045260246000fd5b600060028204905060018216806108a157607f821691505b6020821081036108b4576108b361085a565b5b50919050565b7f596f752063616e20636173742061206d6178696d756d206f66203320766f746560008201527f732e000000000000000000000000000000000000000000000000000000000000602082015250565b6000610916602283610655565b9150610921826108ba565b604082019050919050565b6000602082019050818103600083015261094581610909565b9050919050565b7f496e76616c69642063616e6469646174652049442e0000000000000000000000600082015250565b6000610982601583610655565b915061098d8261094c565b602082019050919050565b600060208201905081810360008301526109b181610975565b9050919050565b7f566f74652072616e6b206d75737420626520312c20322c206f7220332e000000600082015250565b60006109ee601d83610655565b91506109f9826109b8565b602082019050919050565b60006020820190508181036000830152610a1d816109e1565b9050919050565b7f4e487b7100000000000000000000000000000000000000000000000000000000600052601160045260246000fd5b6000610a5e82610795565b9150610a6983610795565b9250828201905060ff811115610a8257610a81610a24565b5b92915050565b7f457863656564696e672074686520746f74616c20616c6c6f77656420766f746560008201527f732e000000000000000000000000000000000000000000000000000000000000602082015250565b6000610ae4602283610655565b9150610aef82610a88565b604082019050919050565b60006020820190508181036000830152610b1381610ad7565b9050919050565b6000610b25826105b8565b9150610b30836105b8565b9250828201905080821115610b4857610b47610a24565b5b92915050565b610b578161072a565b82525050565b6000606082019050610b726000830186610b4e565b610b7f60208301856105c2565b610b8c60408301846105c2565b94935050505056fea26469706673582212207f369b4237e5ec24a6c18cffaf00f161332c84184b4be9d34cc5d34e1c004a4a64736f6c634300081c0033",
  "linkReferences": {},
  "deployedLinkReferences": {}
}